{
  "abi": [
    {
      "inputs": [
        {
          "internalType": "address",
          "name": "_dao",
          "type": "address"
        }
      ],
      "stateMutability": "nonpayable",
      "type": "constructor"
    },
    {
      "inputs": [],
      "name": "AccessControlBadConfirmation",
      "type": "error"
    },
    {
      "inputs": [
        {
          "internalType": "address",
          "name": "account",
          "type": "address"
        },
        {
          "internalType": "bytes32",
          "name": "neededRole",
          "type": "bytes32"
        }
      ],
      "name": "AccessControlUnauthorizedAccount",
      "type": "error"
    },
    {
      "anonymous": false,
      "inputs": [
        {
          "indexed": true,
          "internalType": "bytes32",
          "name": "role",
          "type": "bytes32"
        },
        {
          "indexed": true,
          "internalType": "bytes32",
          "name": "previousAdminRole",
          "type": "bytes32"
        },
        {
          "indexed": true,
          "internalType": "bytes32",
          "name": "newAdminRole",
          "type": "bytes32"
        }
      ],
      "name": "RoleAdminChanged",
      "type": "event"
    },
    {
      "anonymous": false,
      "inputs": [
        {
          "indexed": true,
          "internalType": "bytes32",
          "name": "role",
          "type": "bytes32"
        },
        {
          "indexed": true,
          "internalType": "address",
          "name": "account",
          "type": "address"
        },
        {
          "indexed": true,
          "internalType": "address",
          "name": "sender",
          "type": "address"
        }
      ],
      "name": "RoleGranted",
      "type": "event"
    },
    {
      "anonymous": false,
      "inputs": [
        {
          "indexed": true,
          "internalType": "bytes32",
          "name": "role",
          "type": "bytes32"
        },
        {
          "indexed": true,
          "internalType": "address",
          "name": "account",
          "type": "address"
        },
        {
          "indexed": true,
          "internalType": "address",
          "name": "sender",
          "type": "address"
        }
      ],
      "name": "RoleRevoked",
      "type": "event"
    },
    {
      "inputs": [],
      "name": "DAO_ROLE",
      "outputs": [
        {
          "internalType": "bytes32",
          "name": "",
          "type": "bytes32"
        }
      ],
      "stateMutability": "view",
      "type": "function"
    },
    {
      "inputs": [],
      "name": "DEFAULT_ADMIN_ROLE",
      "outputs": [
        {
          "internalType": "bytes32",
          "name": "",
          "type": "bytes32"
        }
      ],
      "stateMutability": "view",
      "type": "function"
    },
    {
      "inputs": [],
      "name": "KEEPER_ROLE",
      "outputs": [
        {
          "internalType": "bytes32",
          "name": "",
          "type": "bytes32"
        }
      ],
      "stateMutability": "view",
      "type": "function"
    },
    {
      "inputs": [],
      "name": "_claimRewards",
      "outputs": [],
      "stateMutability": "nonpayable",
      "type": "function"
    },
    {
      "inputs": [
        {
          "internalType": "address",
          "name": "",
          "type": "address"
        },
        {
          "internalType": "uint256[]",
          "name": "amounts",
          "type": "uint256[]"
        },
        {
          "internalType": "bytes",
          "name": "extraStrategyData",
          "type": "bytes"
        }
      ],
      "name": "_withdrawInvestment",
      "outputs": [],
      "stateMutability": "nonpayable",
      "type": "function"
    },
    {
      "inputs": [],
      "name": "auraBooster",
      "outputs": [
        {
          "internalType": "contract IAuraBooster",
          "name": "",
          "type": "address"
        }
      ],
      "stateMutability": "view",
      "type": "function"
    },
    {
      "inputs": [],
      "name": "balancerVault",
      "outputs": [
        {
          "internalType": "contract IBalancerVault",
          "name": "",
          "type": "address"
        }
      ],
      "stateMutability": "view",
      "type": "function"
    },
    {
      "inputs": [],
      "name": "crvUSD",
      "outputs": [
        {
          "internalType": "contract IcrvUSD",
          "name": "",
          "type": "address"
        }
      ],
      "stateMutability": "view",
      "type": "function"
    },
    {
      "inputs": [],
      "name": "crvUSDController",
      "outputs": [
        {
          "internalType": "contract IcrvUSDController",
          "name": "",
          "type": "address"
        }
      ],
      "stateMutability": "view",
      "type": "function"
    },
    {
      "inputs": [],
      "name": "crvUSDUSDCPool",
      "outputs": [
        {
          "internalType": "contract IcrvUSDUSDCPool",
          "name": "",
          "type": "address"
        }
      ],
      "stateMutability": "view",
      "type": "function"
    },
    {
      "inputs": [],
      "name": "crvusd",
      "outputs": [
        {
          "internalType": "contract IERC20",
          "name": "",
          "type": "address"
        }
      ],
      "stateMutability": "view",
      "type": "function"
    },
    {
      "inputs": [],
      "name": "d2d",
      "outputs": [
        {
          "internalType": "contract IERC20",
          "name": "",
          "type": "address"
        }
      ],
      "stateMutability": "view",
      "type": "function"
    },
    {
      "inputs": [
        {
          "internalType": "bytes32",
          "name": "role",
          "type": "bytes32"
        }
      ],
      "name": "getRoleAdmin",
      "outputs": [
        {
          "internalType": "bytes32",
          "name": "",
          "type": "bytes32"
        }
      ],
      "stateMutability": "view",
      "type": "function"
    },
    {
      "inputs": [
        {
          "internalType": "bytes32",
          "name": "role",
          "type": "bytes32"
        },
        {
          "internalType": "address",
          "name": "account",
          "type": "address"
        }
      ],
      "name": "grantRole",
      "outputs": [],
      "stateMutability": "nonpayable",
      "type": "function"
    },
    {
      "inputs": [
        {
          "internalType": "bytes32",
          "name": "role",
          "type": "bytes32"
        },
        {
          "internalType": "address",
          "name": "account",
          "type": "address"
        }
      ],
      "name": "hasRole",
      "outputs": [
        {
          "internalType": "bool",
          "name": "",
          "type": "bool"
        }
      ],
      "stateMutability": "view",
      "type": "function"
    },
    {
      "inputs": [
        {
          "internalType": "address",
          "name": "_auraBooster",
          "type": "address"
        },
        {
          "internalType": "address",
          "name": "_balancerVault",
          "type": "address"
        },
        {
          "internalType": "address",
          "name": "_crvUSD",
          "type": "address"
        },
        {
          "internalType": "address",
          "name": "_crvUSDController",
          "type": "address"
        },
        {
          "internalType": "address",
          "name": "_crvUSDUSDCPool",
          "type": "address"
        },
        {
          "internalType": "address",
          "name": "_wstETH",
          "type": "address"
        },
        {
          "internalType": "address",
          "name": "_USDC",
          "type": "address"
        },
        {
          "internalType": "address",
          "name": "_D2D",
          "type": "address"
        }
      ],
      "name": "initializeContracts",
      "outputs": [],
      "stateMutability": "nonpayable",
      "type": "function"
    },
    {
      "inputs": [
        {
          "internalType": "uint256",
          "name": "_wstETHAmount",
          "type": "uint256"
        },
        {
          "internalType": "uint256",
          "name": "_debtAmount",
          "type": "uint256"
        },
        {
          "internalType": "uint256",
          "name": "_N",
          "type": "uint256"
        }
      ],
      "name": "invest",
      "outputs": [],
      "stateMutability": "nonpayable",
      "type": "function"
    },
    {
      "inputs": [],
      "name": "pid",
      "outputs": [
        {
          "internalType": "uint256",
          "name": "",
          "type": "uint256"
        }
      ],
      "stateMutability": "view",
      "type": "function"
    },
    {
      "inputs": [],
      "name": "poolId",
      "outputs": [
        {
          "internalType": "bytes32",
          "name": "",
          "type": "bytes32"
        }
      ],
      "stateMutability": "view",
      "type": "function"
    },
    {
      "inputs": [
        {
          "internalType": "bytes32",
          "name": "role",
          "type": "bytes32"
        },
        {
          "internalType": "address",
          "name": "callerConfirmation",
          "type": "address"
        }
      ],
      "name": "renounceRole",
      "outputs": [],
      "stateMutability": "nonpayable",
      "type": "function"
    },
    {
      "inputs": [
        {
          "internalType": "bytes32",
          "name": "role",
          "type": "bytes32"
        },
        {
          "internalType": "address",
          "name": "account",
          "type": "address"
        }
      ],
      "name": "revokeRole",
      "outputs": [],
      "stateMutability": "nonpayable",
      "type": "function"
    },
    {
      "inputs": [
        {
          "internalType": "uint256",
          "name": "_pid",
          "type": "uint256"
        }
      ],
      "name": "setPid",
      "outputs": [],
      "stateMutability": "nonpayable",
      "type": "function"
    },
    {
      "inputs": [
        {
          "internalType": "bytes32",
          "name": "_poolId",
          "type": "bytes32"
        }
      ],
      "name": "setPoolId",
      "outputs": [],
      "stateMutability": "nonpayable",
      "type": "function"
    },
    {
      "inputs": [],
      "name": "strategyHealth",
      "outputs": [
        {
          "internalType": "int256",
          "name": "",
          "type": "int256"
        }
      ],
      "stateMutability": "view",
      "type": "function"
    },
    {
      "inputs": [
        {
          "internalType": "bytes4",
          "name": "interfaceId",
          "type": "bytes4"
        }
      ],
      "name": "supportsInterface",
      "outputs": [
        {
          "internalType": "bool",
          "name": "",
          "type": "bool"
        }
      ],
      "stateMutability": "view",
      "type": "function"
    },
    {
      "inputs": [],
      "name": "totalwstETHDeposited",
      "outputs": [
        {
          "internalType": "uint256",
          "name": "",
          "type": "uint256"
        }
      ],
      "stateMutability": "view",
      "type": "function"
    },
    {
      "inputs": [],
      "name": "treasury",
      "outputs": [
        {
          "internalType": "address",
          "name": "",
          "type": "address"
        }
      ],
      "stateMutability": "view",
      "type": "function"
    },
    {
      "inputs": [],
      "name": "usdc",
      "outputs": [
        {
          "internalType": "contract IERC20",
          "name": "",
          "type": "address"
        }
      ],
      "stateMutability": "view",
      "type": "function"
    },
    {
      "inputs": [
        {
          "internalType": "address",
          "name": "",
          "type": "address"
        }
      ],
      "name": "userInfo",
      "outputs": [
        {
          "internalType": "uint256",
          "name": "wstETHDeposited",
          "type": "uint256"
        },
        {
          "internalType": "uint256",
          "name": "crvUSDBorrowed",
          "type": "uint256"
        },
        {
          "internalType": "uint256",
          "name": "usdcAmount",
          "type": "uint256"
        },
        {
          "internalType": "uint256",
          "name": "balancerLPTokens",
          "type": "uint256"
        },
        {
          "internalType": "uint256",
          "name": "stakedInAura",
          "type": "uint256"
        },
        {
          "internalType": "uint256",
          "name": "totalYieldEarned",
          "type": "uint256"
        },
        {
          "internalType": "uint256",
          "name": "loanBand",
          "type": "uint256"
        }
      ],
      "stateMutability": "view",
      "type": "function"
    },
    {
      "inputs": [],
      "name": "wsteth",
      "outputs": [
        {
          "internalType": "contract IERC20",
          "name": "",
          "type": "address"
        }
      ],
      "stateMutability": "view",
      "type": "function"
    }
  ],
  "bytecode": {
    "object": "0x608060405234801561000f575f80fd5b50604051610ebf380380610ebf83398101604081905261002e9161012e565b600d80546001600160a01b0319166001600160a01b0383161790556100535f33610085565b5061007e7f3b5d4cc60d3ec3516ee8ae083bd60934f6eb2a6c54b1229985c41bfb092b260382610085565b505061015b565b5f828152602081815260408083206001600160a01b038516845290915281205460ff16610125575f838152602081815260408083206001600160a01b03861684529091529020805460ff191660011790556100dd3390565b6001600160a01b0316826001600160a01b0316847f2f8788117e7eff1d82e926ec794901d17c78024a50270940304540a733656f0d60405160405180910390a4506001610128565b505f5b92915050565b5f6020828403121561013e575f80fd5b81516001600160a01b0381168114610154575f80fd5b9392505050565b610d57806101685f395ff3fe608060405234801561000f575f80fd5b50600436106101d1575f3560e01c806361d027b3116100fe578063d1d8bce71161009e578063e9c265181161006e578063e9c2651814610453578063eaed5d6f1461047a578063f10684541461048d578063fd81e7d414610496575f80fd5b8063d1d8bce714610405578063d51a786b14610418578063d547741f1461042b578063e7eb1f1a1461043e575f80fd5b806391d14854116100d957806391d14854146103d85780639bec8288146103eb578063a217fddf146103fe578063a2e99a9b146102d0575f80fd5b806361d027b31461039f57806379aba36d146103b257806381bf829d146103c5575f80fd5b80632f2ff15d116101745780633e0dc34e116101445780633e0dc34e146103675780633e413bee146103705780634c44951214610383578063569281ce1461038c575f80fd5b80632f2ff15d14610307578063364bc15a1461031a57806336568abe146103415780633ca89f4114610354575f80fd5b80631959a002116101af5780631959a0021461023e5780631b0d8aab146102bd578063236f6f42146102d2578063248a9ca3146102e5575f80fd5b806301ffc9a7146101d55780630a3df2af146101fd578063158274a514610213575b5f80fd5b6101e86101e3366004610a80565b6104a9565b60405190151581526020015b60405180910390f35b6102056104df565b6040519081526020016101f4565b600254610226906001600160a01b031681565b6040516001600160a01b0390911681526020016101f4565b61028861024c366004610ac9565b600e6020525f90815260409020805460018201546002830154600384015460048501546005860154600690960154949593949293919290919087565b604080519788526020880196909652948601939093526060850191909152608084015260a083015260c082015260e0016101f4565b6102d06102cb366004610ae2565b61055a565b005b600454610226906001600160a01b031681565b6102056102f3366004610ae2565b5f9081526020819052604090206001015490565b6102d0610315366004610af9565b61056a565b6102057ffc8737ab85eb45125971625a9ebdb75cc78e01d5c1fa80c4c6e5203f47bc4fab81565b6102d061034f366004610af9565b610594565b6102d0610362366004610b23565b6105cc565b610205600a5481565b600854610226906001600160a01b031681565b610205600c5481565b600554610226906001600160a01b031681565b600d54610226906001600160a01b031681565b6102d06103c0366004610bb5565b610665565b600154610226906001600160a01b031681565b6101e86103e6366004610af9565b610670565b600354610226906001600160a01b031681565b6102055f81565b600654610226906001600160a01b031681565b6102d0610426366004610ae2565b610698565b6102d0610439366004610af9565b6106a8565b6102d061044c366004610c23565b5050505050565b6102057f3b5d4cc60d3ec3516ee8ae083bd60934f6eb2a6c54b1229985c41bfb092b260381565b600754610226906001600160a01b031681565b610205600b5481565b600954610226906001600160a01b031681565b5f6001600160e01b03198216637965db0b60e01b14806104d957506301ffc9a760e01b6001600160e01b03198316145b92915050565b60048054604051634484754160e11b815230928101929092525f60248301819052916001600160a01b0390911690638908ea8290604401602060405180830381865afa158015610531573d5f803e3d5ffd5b505050506040513d601f19601f820116820180604052508101906105559190610ccc565b905090565b5f610564816106cc565b50600b55565b5f82815260208190526040902060010154610584816106cc565b61058e83836106d9565b50505050565b6001600160a01b03811633146105bd5760405163334bd91960e11b815260040160405180910390fd5b6105c78282610768565b505050565b5f6105d6816106cc565b50600180546001600160a01b03199081166001600160a01b039a8b1617909155600280548216988a1698909817909755600380548816968916969096179095556004805487169488169490941790935560058054861692871692909217909155600680548516918616919091179055600880548416918516919091179055600980549092169216919091179055565b6105c78383836107d1565b5f918252602082815260408084206001600160a01b0393909316845291905290205460ff1690565b5f6106a2816106cc565b50600a55565b5f828152602081905260409020600101546106c2816106cc565b61058e8383610768565b6106d68133610a43565b50565b5f6106e48383610670565b610761575f838152602081815260408083206001600160a01b03861684529091529020805460ff191660011790556107193390565b6001600160a01b0316826001600160a01b0316847f2f8788117e7eff1d82e926ec794901d17c78024a50270940304540a733656f0d60405160405180910390a45060016104d9565b505f6104d9565b5f6107738383610670565b15610761575f838152602081815260408083206001600160a01b0386168085529252808320805460ff1916905551339286917ff6391f5c32d9c69d2a47ea670b442974b53935d1edc7fd64eb21e047a839171b9190a45060016104d9565b5f83116108255760405162461bcd60e51b815260206004820152601f60248201527f416d6f756e742073686f756c642062652067726561746572207468616e20300060448201526064015b60405180910390fd5b6006546040516323b872dd60e01b8152336004820152306024820152604481018590526001600160a01b03909116906323b872dd906064016020604051808303815f875af1158015610879573d5f803e3d5ffd5b505050506040513d601f19601f8201168201806040525081019061089d9190610ce3565b6108db5760405162461bcd60e51b815260206004820152600f60248201526e151c985b9cd9995c8819985a5b1959608a1b604482015260640161081c565b6006546004805460405163095ea7b360e01b81526001600160a01b0391821692810192909252602482018690529091169063095ea7b3906044016020604051808303815f875af1158015610931573d5f803e3d5ffd5b505050506040513d601f19601f820116820180604052508101906109559190610ce3565b6109935760405162461bcd60e51b815260206004820152600f60248201526e105c1c1c9bdd985b0819985a5b1959608a1b604482015260640161081c565b600480546040516323cfed0360e01b815291820185905260248201849052604482018390526001600160a01b0316906323cfed03906064015f604051808303815f87803b1580156109e2575f80fd5b505af11580156109f4573d5f803e3d5ffd5b5050505082600c54610a069190610d02565b600c55335f908152600e602052604090208054610a24908590610d02565b81556001810154610a36908490610d02565b6001820155600601555050565b610a4d8282610670565b610a7c5760405163e2517d3f60e01b81526001600160a01b03821660048201526024810183905260440161081c565b5050565b5f60208284031215610a90575f80fd5b81356001600160e01b031981168114610aa7575f80fd5b9392505050565b80356001600160a01b0381168114610ac4575f80fd5b919050565b5f60208284031215610ad9575f80fd5b610aa782610aae565b5f60208284031215610af2575f80fd5b5035919050565b5f8060408385031215610b0a575f80fd5b82359150610b1a60208401610aae565b90509250929050565b5f805f805f805f80610100898b031215610b3b575f80fd5b610b4489610aae565b9750610b5260208a01610aae565b9650610b6060408a01610aae565b9550610b6e60608a01610aae565b9450610b7c60808a01610aae565b9350610b8a60a08a01610aae565b9250610b9860c08a01610aae565b9150610ba660e08a01610aae565b90509295985092959890939650565b5f805f60608486031215610bc7575f80fd5b505081359360208301359350604090920135919050565b5f8083601f840112610bee575f80fd5b50813567ffffffffffffffff811115610c05575f80fd5b602083019150836020828501011115610c1c575f80fd5b9250929050565b5f805f805f60608688031215610c37575f80fd5b610c4086610aae565b9450602086013567ffffffffffffffff80821115610c5c575f80fd5b818801915088601f830112610c6f575f80fd5b813581811115610c7d575f80fd5b8960208260051b8501011115610c91575f80fd5b602083019650809550506040880135915080821115610cae575f80fd5b50610cbb88828901610bde565b969995985093965092949392505050565b5f60208284031215610cdc575f80fd5b5051919050565b5f60208284031215610cf3575f80fd5b81518015158114610aa7575f80fd5b808201808211156104d957634e487b7160e01b5f52601160045260245ffdfea26469706673582212203e8d3209d87d3e7e30e708a6e8386a53631112ecc934e44661da681605f933ca64736f6c63430008150033",
    "linkReferences": {}
  },
  "methodIdentifiers": {
    "DAO_ROLE()": "e9c26518",
    "DEFAULT_ADMIN_ROLE()": "a217fddf",
    "KEEPER_ROLE()": "364bc15a",
    "_claimRewards()": "a2e99a9b",
    "_withdrawInvestment(address,uint256[],bytes)": "e7eb1f1a",
    "auraBooster()": "81bf829d",
    "balancerVault()": "158274a5",
    "crvUSD()": "9bec8288",
    "crvUSDController()": "236f6f42",
    "crvUSDUSDCPool()": "569281ce",
    "crvusd()": "eaed5d6f",
    "d2d()": "fd81e7d4",
    "getRoleAdmin(bytes32)": "248a9ca3",
    "grantRole(bytes32,address)": "2f2ff15d",
    "hasRole(bytes32,address)": "91d14854",
    "initializeContracts(address,address,address,address,address,address,address,address)": "3ca89f41",
    "invest(uint256,uint256,uint256)": "79aba36d",
    "pid()": "f1068454",
    "poolId()": "3e0dc34e",
    "renounceRole(bytes32,address)": "36568abe",
    "revokeRole(bytes32,address)": "d547741f",
    "setPid(uint256)": "1b0d8aab",
    "setPoolId(bytes32)": "d51a786b",
    "strategyHealth()": "0a3df2af",
    "supportsInterface(bytes4)": "01ffc9a7",
    "totalwstETHDeposited()": "4c449512",
    "treasury()": "61d027b3",
    "usdc()": "3e413bee",
    "userInfo(address)": "1959a002",
    "wsteth()": "d1d8bce7"
  },
  "id": 0
}