{
  "abi": [
    {
      "inputs": [
        {
          "internalType": "address",
          "name": "_dao",
          "type": "address"
        }
      ],
      "stateMutability": "nonpayable",
      "type": "constructor"
    },
    {
      "inputs": [],
      "name": "AccessControlBadConfirmation",
      "type": "error"
    },
    {
      "inputs": [
        {
          "internalType": "address",
          "name": "account",
          "type": "address"
        },
        {
          "internalType": "bytes32",
          "name": "neededRole",
          "type": "bytes32"
        }
      ],
      "name": "AccessControlUnauthorizedAccount",
      "type": "error"
    },
    {
      "anonymous": false,
      "inputs": [
        {
          "indexed": true,
          "internalType": "bytes32",
          "name": "role",
          "type": "bytes32"
        },
        {
          "indexed": true,
          "internalType": "bytes32",
          "name": "previousAdminRole",
          "type": "bytes32"
        },
        {
          "indexed": true,
          "internalType": "bytes32",
          "name": "newAdminRole",
          "type": "bytes32"
        }
      ],
      "name": "RoleAdminChanged",
      "type": "event"
    },
    {
      "anonymous": false,
      "inputs": [
        {
          "indexed": true,
          "internalType": "bytes32",
          "name": "role",
          "type": "bytes32"
        },
        {
          "indexed": true,
          "internalType": "address",
          "name": "account",
          "type": "address"
        },
        {
          "indexed": true,
          "internalType": "address",
          "name": "sender",
          "type": "address"
        }
      ],
      "name": "RoleGranted",
      "type": "event"
    },
    {
      "anonymous": false,
      "inputs": [
        {
          "indexed": true,
          "internalType": "bytes32",
          "name": "role",
          "type": "bytes32"
        },
        {
          "indexed": true,
          "internalType": "address",
          "name": "account",
          "type": "address"
        },
        {
          "indexed": true,
          "internalType": "address",
          "name": "sender",
          "type": "address"
        }
      ],
      "name": "RoleRevoked",
      "type": "event"
    },
    {
      "inputs": [],
      "name": "DAO_ROLE",
      "outputs": [
        {
          "internalType": "bytes32",
          "name": "",
          "type": "bytes32"
        }
      ],
      "stateMutability": "view",
      "type": "function"
    },
    {
      "inputs": [],
      "name": "DEFAULT_ADMIN_ROLE",
      "outputs": [
        {
          "internalType": "bytes32",
          "name": "",
          "type": "bytes32"
        }
      ],
      "stateMutability": "view",
      "type": "function"
    },
    {
      "inputs": [],
      "name": "KEEPER_ROLE",
      "outputs": [
        {
          "internalType": "bytes32",
          "name": "",
          "type": "bytes32"
        }
      ],
      "stateMutability": "view",
      "type": "function"
    },
    {
      "inputs": [],
      "name": "_claimRewards",
      "outputs": [],
      "stateMutability": "nonpayable",
      "type": "function"
    },
    {
      "inputs": [
        {
          "internalType": "address",
          "name": "",
          "type": "address"
        },
        {
          "internalType": "uint256[]",
          "name": "amounts",
          "type": "uint256[]"
        },
        {
          "internalType": "bytes",
          "name": "extraStrategyData",
          "type": "bytes"
        }
      ],
      "name": "_withdrawInvestment",
      "outputs": [],
      "stateMutability": "nonpayable",
      "type": "function"
    },
    {
      "inputs": [],
      "name": "auraBooster",
      "outputs": [
        {
          "internalType": "contract IAuraBooster",
          "name": "",
          "type": "address"
        }
      ],
      "stateMutability": "view",
      "type": "function"
    },
    {
      "inputs": [],
      "name": "balancerVault",
      "outputs": [
        {
          "internalType": "contract IBalancerVault",
          "name": "",
          "type": "address"
        }
      ],
      "stateMutability": "view",
      "type": "function"
    },
    {
      "inputs": [],
      "name": "crvUSD",
      "outputs": [
        {
          "internalType": "contract IcrvUSD",
          "name": "",
          "type": "address"
        }
      ],
      "stateMutability": "view",
      "type": "function"
    },
    {
      "inputs": [],
      "name": "crvUSDController",
      "outputs": [
        {
          "internalType": "contract IcrvUSDController",
          "name": "",
          "type": "address"
        }
      ],
      "stateMutability": "view",
      "type": "function"
    },
    {
      "inputs": [],
      "name": "crvUSDUSDCPool",
      "outputs": [
        {
          "internalType": "contract IcrvUSDUSDCPool",
          "name": "",
          "type": "address"
        }
      ],
      "stateMutability": "view",
      "type": "function"
    },
    {
      "inputs": [],
      "name": "crvusd",
      "outputs": [
        {
          "internalType": "contract IERC20",
          "name": "",
          "type": "address"
        }
      ],
      "stateMutability": "view",
      "type": "function"
    },
    {
      "inputs": [],
      "name": "d2d",
      "outputs": [
        {
          "internalType": "contract IERC20",
          "name": "",
          "type": "address"
        }
      ],
      "stateMutability": "view",
      "type": "function"
    },
    {
      "inputs": [
        {
          "internalType": "bytes32",
          "name": "role",
          "type": "bytes32"
        }
      ],
      "name": "getRoleAdmin",
      "outputs": [
        {
          "internalType": "bytes32",
          "name": "",
          "type": "bytes32"
        }
      ],
      "stateMutability": "view",
      "type": "function"
    },
    {
      "inputs": [
        {
          "internalType": "bytes32",
          "name": "role",
          "type": "bytes32"
        },
        {
          "internalType": "address",
          "name": "account",
          "type": "address"
        }
      ],
      "name": "grantRole",
      "outputs": [],
      "stateMutability": "nonpayable",
      "type": "function"
    },
    {
      "inputs": [
        {
          "internalType": "bytes32",
          "name": "role",
          "type": "bytes32"
        },
        {
          "internalType": "address",
          "name": "account",
          "type": "address"
        }
      ],
      "name": "hasRole",
      "outputs": [
        {
          "internalType": "bool",
          "name": "",
          "type": "bool"
        }
      ],
      "stateMutability": "view",
      "type": "function"
    },
    {
      "inputs": [
        {
          "internalType": "address",
          "name": "_auraBooster",
          "type": "address"
        },
        {
          "internalType": "address",
          "name": "_balancerVault",
          "type": "address"
        },
        {
          "internalType": "address",
          "name": "_crvUSD",
          "type": "address"
        },
        {
          "internalType": "address",
          "name": "_crvUSDController",
          "type": "address"
        },
        {
          "internalType": "address",
          "name": "_crvUSDUSDCPool",
          "type": "address"
        },
        {
          "internalType": "address",
          "name": "_wstETH",
          "type": "address"
        },
        {
          "internalType": "address",
          "name": "_USDC",
          "type": "address"
        },
        {
          "internalType": "address",
          "name": "_D2D",
          "type": "address"
        }
      ],
      "name": "initializeContracts",
      "outputs": [],
      "stateMutability": "nonpayable",
      "type": "function"
    },
    {
      "inputs": [
        {
          "internalType": "uint256",
          "name": "_wstETHAmount",
          "type": "uint256"
        },
        {
          "internalType": "uint256",
          "name": "_debtAmount",
          "type": "uint256"
        },
        {
          "internalType": "uint256",
          "name": "_N",
          "type": "uint256"
        }
      ],
      "name": "invest",
      "outputs": [],
      "stateMutability": "nonpayable",
      "type": "function"
    },
    {
      "inputs": [],
      "name": "poolId",
      "outputs": [
        {
          "internalType": "bytes32",
          "name": "",
          "type": "bytes32"
        }
      ],
      "stateMutability": "view",
      "type": "function"
    },
    {
      "inputs": [
        {
          "internalType": "bytes32",
          "name": "role",
          "type": "bytes32"
        },
        {
          "internalType": "address",
          "name": "callerConfirmation",
          "type": "address"
        }
      ],
      "name": "renounceRole",
      "outputs": [],
      "stateMutability": "nonpayable",
      "type": "function"
    },
    {
      "inputs": [
        {
          "internalType": "bytes32",
          "name": "role",
          "type": "bytes32"
        },
        {
          "internalType": "address",
          "name": "account",
          "type": "address"
        }
      ],
      "name": "revokeRole",
      "outputs": [],
      "stateMutability": "nonpayable",
      "type": "function"
    },
    {
      "inputs": [
        {
          "internalType": "bytes32",
          "name": "_poolId",
          "type": "bytes32"
        }
      ],
      "name": "setPoolId",
      "outputs": [],
      "stateMutability": "nonpayable",
      "type": "function"
    },
    {
      "inputs": [
        {
          "internalType": "bytes4",
          "name": "interfaceId",
          "type": "bytes4"
        }
      ],
      "name": "supportsInterface",
      "outputs": [
        {
          "internalType": "bool",
          "name": "",
          "type": "bool"
        }
      ],
      "stateMutability": "view",
      "type": "function"
    },
    {
      "inputs": [],
      "name": "totalwstETHDeposited",
      "outputs": [
        {
          "internalType": "uint256",
          "name": "",
          "type": "uint256"
        }
      ],
      "stateMutability": "view",
      "type": "function"
    },
    {
      "inputs": [],
      "name": "treasury",
      "outputs": [
        {
          "internalType": "address",
          "name": "",
          "type": "address"
        }
      ],
      "stateMutability": "view",
      "type": "function"
    },
    {
      "inputs": [],
      "name": "usdc",
      "outputs": [
        {
          "internalType": "contract IERC20",
          "name": "",
          "type": "address"
        }
      ],
      "stateMutability": "view",
      "type": "function"
    },
    {
      "inputs": [
        {
          "internalType": "address",
          "name": "",
          "type": "address"
        }
      ],
      "name": "userInfo",
      "outputs": [
        {
          "internalType": "uint256",
          "name": "wstETHDeposited",
          "type": "uint256"
        },
        {
          "internalType": "uint256",
          "name": "crvUSDBorrowed",
          "type": "uint256"
        },
        {
          "internalType": "uint256",
          "name": "usdcAmount",
          "type": "uint256"
        },
        {
          "internalType": "uint256",
          "name": "balancerLPTokens",
          "type": "uint256"
        },
        {
          "internalType": "uint256",
          "name": "stakedInAura",
          "type": "uint256"
        },
        {
          "internalType": "uint256",
          "name": "totalYieldEarned",
          "type": "uint256"
        },
        {
          "internalType": "uint256",
          "name": "loanBand",
          "type": "uint256"
        }
      ],
      "stateMutability": "view",
      "type": "function"
    },
    {
      "inputs": [],
      "name": "wsteth",
      "outputs": [
        {
          "internalType": "contract IERC20",
          "name": "",
          "type": "address"
        }
      ],
      "stateMutability": "view",
      "type": "function"
    }
  ],
  "bytecode": {
    "object": "0x608060405234801561000f575f80fd5b50604051610dd9380380610dd983398101604081905261002e9161012e565b600c80546001600160a01b0319166001600160a01b0383161790556100535f33610085565b5061007e7f3b5d4cc60d3ec3516ee8ae083bd60934f6eb2a6c54b1229985c41bfb092b260382610085565b505061015b565b5f828152602081815260408083206001600160a01b038516845290915281205460ff16610125575f838152602081815260408083206001600160a01b03861684529091529020805460ff191660011790556100dd3390565b6001600160a01b0316826001600160a01b0316847f2f8788117e7eff1d82e926ec794901d17c78024a50270940304540a733656f0d60405160405180910390a4506001610128565b505f5b92915050565b5f6020828403121561013e575f80fd5b81516001600160a01b0381168114610154575f80fd5b9392505050565b610c71806101685f395ff3fe608060405234801561000f575f80fd5b50600436106101a1575f3560e01c806361d027b3116100f3578063d1d8bce711610093578063e7eb1f1a1161006e578063e7eb1f1a1461047c578063e9c2651814610491578063eaed5d6f146104b8578063fd81e7d4146104cb575f80fd5b8063d1d8bce714610443578063d51a786b14610456578063d547741f14610469575f80fd5b806391d14854116100ce57806391d14854146104165780639bec828814610429578063a217fddf1461043c578063a2e99a9b146102cd575f80fd5b806361d027b3146103dd57806379aba36d146103f057806381bf829d14610403575f80fd5b8063364bc15a1161015e5780633e0dc34e116101395780633e0dc34e146103a55780633e413bee146103ae5780634c449512146103c1578063569281ce146103ca575f80fd5b8063364bc15a146102cf57806336568abe146102f65780633ca89f4114610309575f80fd5b806301ffc9a7146101a5578063158274a5146101cd5780631959a002146101f8578063236f6f4214610277578063248a9ca31461028a5780632f2ff15d146102ba575b5f80fd5b6101b86101b33660046109b1565b6104de565b60405190151581526020015b60405180910390f35b6002546101e0906001600160a01b031681565b6040516001600160a01b0390911681526020016101c4565b6102426102063660046109fa565b600d6020525f90815260409020805460018201546002830154600384015460048501546005860154600690960154949593949293919290919087565b604080519788526020880196909652948601939093526060850191909152608084015260a083015260c082015260e0016101c4565b6004546101e0906001600160a01b031681565b6102ac610298366004610a13565b5f9081526020819052604090206001015490565b6040519081526020016101c4565b6102cd6102c8366004610a2a565b610514565b005b6102ac7ffc8737ab85eb45125971625a9ebdb75cc78e01d5c1fa80c4c6e5203f47bc4fab81565b6102cd610304366004610a2a565b61053e565b6102cd610317366004610a54565b600180546001600160a01b03199081166001600160a01b039a8b1617909155600280548216988a1698909817909755600380548816968916969096179095556004805487169488169490941790935560058054861692871692909217909155600680548516918616919091179055600880548416918516919091179055600980549092169216919091179055565b6102ac600a5481565b6008546101e0906001600160a01b031681565b6102ac600b5481565b6005546101e0906001600160a01b031681565b600c546101e0906001600160a01b031681565b6102cd6103fe366004610ae6565b610576565b6001546101e0906001600160a01b031681565b6101b8610424366004610a2a565b610581565b6003546101e0906001600160a01b031681565b6102ac5f81565b6006546101e0906001600160a01b031681565b6102cd610464366004610a13565b6105a9565b6102cd610477366004610a2a565b6105d9565b6102cd61048a366004610b54565b5050505050565b6102ac7f3b5d4cc60d3ec3516ee8ae083bd60934f6eb2a6c54b1229985c41bfb092b260381565b6007546101e0906001600160a01b031681565b6009546101e0906001600160a01b031681565b5f6001600160e01b03198216637965db0b60e01b148061050e57506301ffc9a760e01b6001600160e01b03198316145b92915050565b5f8281526020819052604090206001015461052e816105fd565b610538838361060a565b50505050565b6001600160a01b03811633146105675760405163334bd91960e11b815260040160405180910390fd5b6105718282610699565b505050565b610571838383610702565b5f918252602082815260408084206001600160a01b0393909316845291905290205460ff1690565b7f3b5d4cc60d3ec3516ee8ae083bd60934f6eb2a6c54b1229985c41bfb092b26036105d3816105fd565b50600a55565b5f828152602081905260409020600101546105f3816105fd565b6105388383610699565b6106078133610974565b50565b5f6106158383610581565b610692575f838152602081815260408083206001600160a01b03861684529091529020805460ff1916600117905561064a3390565b6001600160a01b0316826001600160a01b0316847f2f8788117e7eff1d82e926ec794901d17c78024a50270940304540a733656f0d60405160405180910390a450600161050e565b505f61050e565b5f6106a48383610581565b15610692575f838152602081815260408083206001600160a01b0386168085529252808320805460ff1916905551339286917ff6391f5c32d9c69d2a47ea670b442974b53935d1edc7fd64eb21e047a839171b9190a450600161050e565b5f83116107565760405162461bcd60e51b815260206004820152601f60248201527f416d6f756e742073686f756c642062652067726561746572207468616e20300060448201526064015b60405180910390fd5b6006546040516323b872dd60e01b8152336004820152306024820152604481018590526001600160a01b03909116906323b872dd906064016020604051808303815f875af11580156107aa573d5f803e3d5ffd5b505050506040513d601f19601f820116820180604052508101906107ce9190610bfd565b61080c5760405162461bcd60e51b815260206004820152600f60248201526e151c985b9cd9995c8819985a5b1959608a1b604482015260640161074d565b6006546004805460405163095ea7b360e01b81526001600160a01b0391821692810192909252602482018690529091169063095ea7b3906044016020604051808303815f875af1158015610862573d5f803e3d5ffd5b505050506040513d601f19601f820116820180604052508101906108869190610bfd565b6108c45760405162461bcd60e51b815260206004820152600f60248201526e105c1c1c9bdd985b0819985a5b1959608a1b604482015260640161074d565b600480546040516323cfed0360e01b815291820185905260248201849052604482018390526001600160a01b0316906323cfed03906064015f604051808303815f87803b158015610913575f80fd5b505af1158015610925573d5f803e3d5ffd5b5050505082600b546109379190610c1c565b600b55335f908152600d602052604090208054610955908590610c1c565b81556001810154610967908490610c1c565b6001820155600601555050565b61097e8282610581565b6109ad5760405163e2517d3f60e01b81526001600160a01b03821660048201526024810183905260440161074d565b5050565b5f602082840312156109c1575f80fd5b81356001600160e01b0319811681146109d8575f80fd5b9392505050565b80356001600160a01b03811681146109f5575f80fd5b919050565b5f60208284031215610a0a575f80fd5b6109d8826109df565b5f60208284031215610a23575f80fd5b5035919050565b5f8060408385031215610a3b575f80fd5b82359150610a4b602084016109df565b90509250929050565b5f805f805f805f80610100898b031215610a6c575f80fd5b610a75896109df565b9750610a8360208a016109df565b9650610a9160408a016109df565b9550610a9f60608a016109df565b9450610aad60808a016109df565b9350610abb60a08a016109df565b9250610ac960c08a016109df565b9150610ad760e08a016109df565b90509295985092959890939650565b5f805f60608486031215610af8575f80fd5b505081359360208301359350604090920135919050565b5f8083601f840112610b1f575f80fd5b50813567ffffffffffffffff811115610b36575f80fd5b602083019150836020828501011115610b4d575f80fd5b9250929050565b5f805f805f60608688031215610b68575f80fd5b610b71866109df565b9450602086013567ffffffffffffffff80821115610b8d575f80fd5b818801915088601f830112610ba0575f80fd5b813581811115610bae575f80fd5b8960208260051b8501011115610bc2575f80fd5b602083019650809550506040880135915080821115610bdf575f80fd5b50610bec88828901610b0f565b969995985093965092949392505050565b5f60208284031215610c0d575f80fd5b815180151581146109d8575f80fd5b8082018082111561050e57634e487b7160e01b5f52601160045260245ffdfea264697066735822122014ac2455f8cdb60819817e2f09d999374ea48c978f87f9add64774298d31be3064736f6c63430008150033",
    "linkReferences": {}
  },
  "methodIdentifiers": {
    "DAO_ROLE()": "e9c26518",
    "DEFAULT_ADMIN_ROLE()": "a217fddf",
    "KEEPER_ROLE()": "364bc15a",
    "_claimRewards()": "a2e99a9b",
    "_withdrawInvestment(address,uint256[],bytes)": "e7eb1f1a",
    "auraBooster()": "81bf829d",
    "balancerVault()": "158274a5",
    "crvUSD()": "9bec8288",
    "crvUSDController()": "236f6f42",
    "crvUSDUSDCPool()": "569281ce",
    "crvusd()": "eaed5d6f",
    "d2d()": "fd81e7d4",
    "getRoleAdmin(bytes32)": "248a9ca3",
    "grantRole(bytes32,address)": "2f2ff15d",
    "hasRole(bytes32,address)": "91d14854",
    "initializeContracts(address,address,address,address,address,address,address,address)": "3ca89f41",
    "invest(uint256,uint256,uint256)": "79aba36d",
    "poolId()": "3e0dc34e",
    "renounceRole(bytes32,address)": "36568abe",
    "revokeRole(bytes32,address)": "d547741f",
    "setPoolId(bytes32)": "d51a786b",
    "supportsInterface(bytes4)": "01ffc9a7",
    "totalwstETHDeposited()": "4c449512",
    "treasury()": "61d027b3",
    "usdc()": "3e413bee",
    "userInfo(address)": "1959a002",
    "wsteth()": "d1d8bce7"
  },
  "id": 0
}