{
  "abi": [
    {
      "inputs": [
        {
          "internalType": "address",
          "name": "_dao",
          "type": "address"
        }
      ],
      "stateMutability": "nonpayable",
      "type": "constructor"
    },
    {
      "inputs": [],
      "name": "AccessControlBadConfirmation",
      "type": "error"
    },
    {
      "inputs": [
        {
          "internalType": "address",
          "name": "account",
          "type": "address"
        },
        {
          "internalType": "bytes32",
          "name": "neededRole",
          "type": "bytes32"
        }
      ],
      "name": "AccessControlUnauthorizedAccount",
      "type": "error"
    },
    {
      "anonymous": false,
      "inputs": [
        {
          "indexed": true,
          "internalType": "bytes32",
          "name": "role",
          "type": "bytes32"
        },
        {
          "indexed": true,
          "internalType": "bytes32",
          "name": "previousAdminRole",
          "type": "bytes32"
        },
        {
          "indexed": true,
          "internalType": "bytes32",
          "name": "newAdminRole",
          "type": "bytes32"
        }
      ],
      "name": "RoleAdminChanged",
      "type": "event"
    },
    {
      "anonymous": false,
      "inputs": [
        {
          "indexed": true,
          "internalType": "bytes32",
          "name": "role",
          "type": "bytes32"
        },
        {
          "indexed": true,
          "internalType": "address",
          "name": "account",
          "type": "address"
        },
        {
          "indexed": true,
          "internalType": "address",
          "name": "sender",
          "type": "address"
        }
      ],
      "name": "RoleGranted",
      "type": "event"
    },
    {
      "anonymous": false,
      "inputs": [
        {
          "indexed": true,
          "internalType": "bytes32",
          "name": "role",
          "type": "bytes32"
        },
        {
          "indexed": true,
          "internalType": "address",
          "name": "account",
          "type": "address"
        },
        {
          "indexed": true,
          "internalType": "address",
          "name": "sender",
          "type": "address"
        }
      ],
      "name": "RoleRevoked",
      "type": "event"
    },
    {
      "inputs": [],
      "name": "DAO_ROLE",
      "outputs": [
        {
          "internalType": "bytes32",
          "name": "",
          "type": "bytes32"
        }
      ],
      "stateMutability": "view",
      "type": "function"
    },
    {
      "inputs": [],
      "name": "DEFAULT_ADMIN_ROLE",
      "outputs": [
        {
          "internalType": "bytes32",
          "name": "",
          "type": "bytes32"
        }
      ],
      "stateMutability": "view",
      "type": "function"
    },
    {
      "inputs": [],
      "name": "KEEPER_ROLE",
      "outputs": [
        {
          "internalType": "bytes32",
          "name": "",
          "type": "bytes32"
        }
      ],
      "stateMutability": "view",
      "type": "function"
    },
    {
      "inputs": [],
      "name": "_claimRewards",
      "outputs": [],
      "stateMutability": "nonpayable",
      "type": "function"
    },
    {
      "inputs": [
        {
          "internalType": "address",
          "name": "",
          "type": "address"
        },
        {
          "internalType": "uint256[]",
          "name": "amounts",
          "type": "uint256[]"
        },
        {
          "internalType": "bytes",
          "name": "extraStrategyData",
          "type": "bytes"
        }
      ],
      "name": "_withdrawInvestment",
      "outputs": [],
      "stateMutability": "nonpayable",
      "type": "function"
    },
    {
      "inputs": [],
      "name": "auraBooster",
      "outputs": [
        {
          "internalType": "contract IAuraBooster",
          "name": "",
          "type": "address"
        }
      ],
      "stateMutability": "view",
      "type": "function"
    },
    {
      "inputs": [],
      "name": "balancerVault",
      "outputs": [
        {
          "internalType": "contract IBalancerVault",
          "name": "",
          "type": "address"
        }
      ],
      "stateMutability": "view",
      "type": "function"
    },
    {
      "inputs": [],
      "name": "crvUSD",
      "outputs": [
        {
          "internalType": "contract IcrvUSD",
          "name": "",
          "type": "address"
        }
      ],
      "stateMutability": "view",
      "type": "function"
    },
    {
      "inputs": [],
      "name": "crvUSDController",
      "outputs": [
        {
          "internalType": "contract IcrvUSDController",
          "name": "",
          "type": "address"
        }
      ],
      "stateMutability": "view",
      "type": "function"
    },
    {
      "inputs": [],
      "name": "crvUSDUSDCPool",
      "outputs": [
        {
          "internalType": "contract IcrvUSDUSDCPool",
          "name": "",
          "type": "address"
        }
      ],
      "stateMutability": "view",
      "type": "function"
    },
    {
      "inputs": [],
      "name": "crvusd",
      "outputs": [
        {
          "internalType": "contract IERC20",
          "name": "",
          "type": "address"
        }
      ],
      "stateMutability": "view",
      "type": "function"
    },
    {
      "inputs": [],
      "name": "d2d",
      "outputs": [
        {
          "internalType": "contract IERC20",
          "name": "",
          "type": "address"
        }
      ],
      "stateMutability": "view",
      "type": "function"
    },
    {
      "inputs": [
        {
          "internalType": "bytes32",
          "name": "role",
          "type": "bytes32"
        }
      ],
      "name": "getRoleAdmin",
      "outputs": [
        {
          "internalType": "bytes32",
          "name": "",
          "type": "bytes32"
        }
      ],
      "stateMutability": "view",
      "type": "function"
    },
    {
      "inputs": [
        {
          "internalType": "bytes32",
          "name": "role",
          "type": "bytes32"
        },
        {
          "internalType": "address",
          "name": "account",
          "type": "address"
        }
      ],
      "name": "grantRole",
      "outputs": [],
      "stateMutability": "nonpayable",
      "type": "function"
    },
    {
      "inputs": [
        {
          "internalType": "bytes32",
          "name": "role",
          "type": "bytes32"
        },
        {
          "internalType": "address",
          "name": "account",
          "type": "address"
        }
      ],
      "name": "hasRole",
      "outputs": [
        {
          "internalType": "bool",
          "name": "",
          "type": "bool"
        }
      ],
      "stateMutability": "view",
      "type": "function"
    },
    {
      "inputs": [
        {
          "internalType": "address",
          "name": "_auraBooster",
          "type": "address"
        },
        {
          "internalType": "address",
          "name": "_balancerVault",
          "type": "address"
        },
        {
          "internalType": "address",
          "name": "_crvUSD",
          "type": "address"
        },
        {
          "internalType": "address",
          "name": "_crvUSDController",
          "type": "address"
        },
        {
          "internalType": "address",
          "name": "_crvUSDUSDCPool",
          "type": "address"
        },
        {
          "internalType": "address",
          "name": "_wstETH",
          "type": "address"
        },
        {
          "internalType": "address",
          "name": "_USDC",
          "type": "address"
        },
        {
          "internalType": "address",
          "name": "_D2D",
          "type": "address"
        }
      ],
      "name": "initializeContracts",
      "outputs": [],
      "stateMutability": "nonpayable",
      "type": "function"
    },
    {
      "inputs": [
        {
          "internalType": "uint256",
          "name": "_wstETHAmount",
          "type": "uint256"
        },
        {
          "internalType": "uint256",
          "name": "_debtAmount",
          "type": "uint256"
        },
        {
          "internalType": "uint256",
          "name": "_N",
          "type": "uint256"
        }
      ],
      "name": "invest",
      "outputs": [],
      "stateMutability": "nonpayable",
      "type": "function"
    },
    {
      "inputs": [],
      "name": "pid",
      "outputs": [
        {
          "internalType": "uint256",
          "name": "",
          "type": "uint256"
        }
      ],
      "stateMutability": "view",
      "type": "function"
    },
    {
      "inputs": [],
      "name": "poolId",
      "outputs": [
        {
          "internalType": "bytes32",
          "name": "",
          "type": "bytes32"
        }
      ],
      "stateMutability": "view",
      "type": "function"
    },
    {
      "inputs": [
        {
          "internalType": "bytes32",
          "name": "role",
          "type": "bytes32"
        },
        {
          "internalType": "address",
          "name": "callerConfirmation",
          "type": "address"
        }
      ],
      "name": "renounceRole",
      "outputs": [],
      "stateMutability": "nonpayable",
      "type": "function"
    },
    {
      "inputs": [
        {
          "internalType": "bytes32",
          "name": "role",
          "type": "bytes32"
        },
        {
          "internalType": "address",
          "name": "account",
          "type": "address"
        }
      ],
      "name": "revokeRole",
      "outputs": [],
      "stateMutability": "nonpayable",
      "type": "function"
    },
    {
      "inputs": [
        {
          "internalType": "uint256",
          "name": "_pid",
          "type": "uint256"
        }
      ],
      "name": "setPid",
      "outputs": [],
      "stateMutability": "nonpayable",
      "type": "function"
    },
    {
      "inputs": [
        {
          "internalType": "bytes32",
          "name": "_poolId",
          "type": "bytes32"
        }
      ],
      "name": "setPoolId",
      "outputs": [],
      "stateMutability": "nonpayable",
      "type": "function"
    },
    {
      "inputs": [
        {
          "internalType": "bytes4",
          "name": "interfaceId",
          "type": "bytes4"
        }
      ],
      "name": "supportsInterface",
      "outputs": [
        {
          "internalType": "bool",
          "name": "",
          "type": "bool"
        }
      ],
      "stateMutability": "view",
      "type": "function"
    },
    {
      "inputs": [],
      "name": "totalwstETHDeposited",
      "outputs": [
        {
          "internalType": "uint256",
          "name": "",
          "type": "uint256"
        }
      ],
      "stateMutability": "view",
      "type": "function"
    },
    {
      "inputs": [],
      "name": "treasury",
      "outputs": [
        {
          "internalType": "address",
          "name": "",
          "type": "address"
        }
      ],
      "stateMutability": "view",
      "type": "function"
    },
    {
      "inputs": [],
      "name": "usdc",
      "outputs": [
        {
          "internalType": "contract IERC20",
          "name": "",
          "type": "address"
        }
      ],
      "stateMutability": "view",
      "type": "function"
    },
    {
      "inputs": [
        {
          "internalType": "address",
          "name": "",
          "type": "address"
        }
      ],
      "name": "userInfo",
      "outputs": [
        {
          "internalType": "uint256",
          "name": "wstETHDeposited",
          "type": "uint256"
        },
        {
          "internalType": "uint256",
          "name": "crvUSDBorrowed",
          "type": "uint256"
        },
        {
          "internalType": "uint256",
          "name": "usdcAmount",
          "type": "uint256"
        },
        {
          "internalType": "uint256",
          "name": "balancerLPTokens",
          "type": "uint256"
        },
        {
          "internalType": "uint256",
          "name": "stakedInAura",
          "type": "uint256"
        },
        {
          "internalType": "uint256",
          "name": "totalYieldEarned",
          "type": "uint256"
        },
        {
          "internalType": "uint256",
          "name": "loanBand",
          "type": "uint256"
        }
      ],
      "stateMutability": "view",
      "type": "function"
    },
    {
      "inputs": [],
      "name": "wsteth",
      "outputs": [
        {
          "internalType": "contract IERC20",
          "name": "",
          "type": "address"
        }
      ],
      "stateMutability": "view",
      "type": "function"
    }
  ],
  "bytecode": {
    "object": "0x608060405234801561000f575f80fd5b5060405161104938038061104983398101604081905261002e9161012e565b600d80546001600160a01b0319166001600160a01b0383161790556100535f33610085565b5061007e7f3b5d4cc60d3ec3516ee8ae083bd60934f6eb2a6c54b1229985c41bfb092b260382610085565b505061015b565b5f828152602081815260408083206001600160a01b038516845290915281205460ff16610125575f838152602081815260408083206001600160a01b03861684529091529020805460ff191660011790556100dd3390565b6001600160a01b0316826001600160a01b0316847f2f8788117e7eff1d82e926ec794901d17c78024a50270940304540a733656f0d60405160405180910390a4506001610128565b505f5b92915050565b5f6020828403121561013e575f80fd5b81516001600160a01b0381168114610154575f80fd5b9392505050565b610ee1806101685f395ff3fe608060405234801561000f575f80fd5b50600436106101c6575f3560e01c806361d027b3116100fe578063d1d8bce71161009e578063e9c265181161006e578063e9c2651814610440578063eaed5d6f14610467578063f10684541461047a578063fd81e7d414610483575f80fd5b8063d1d8bce7146103f2578063d51a786b14610405578063d547741f14610418578063e7eb1f1a1461042b575f80fd5b806391d14854116100d957806391d14854146103c55780639bec8288146103d8578063a217fddf146103eb578063a2e99a9b146102af575f80fd5b806361d027b31461038c57806379aba36d1461039f57806381bf829d146103b2575f80fd5b8063364bc15a116101695780633e0dc34e116101445780633e0dc34e146103545780633e413bee1461035d5780634c44951214610370578063569281ce14610379575f80fd5b8063364bc15a1461030757806336568abe1461032e5780633ca89f4114610341575f80fd5b80631b0d8aab116101a45780631b0d8aab1461029c578063236f6f42146102b1578063248a9ca3146102c45780632f2ff15d146102f4575f80fd5b806301ffc9a7146101ca578063158274a5146101f25780631959a0021461021d575b5f80fd5b6101dd6101d8366004610bcc565b610496565b60405190151581526020015b60405180910390f35b600254610205906001600160a01b031681565b6040516001600160a01b0390911681526020016101e9565b61026761022b366004610c15565b600e6020525f90815260409020805460018201546002830154600384015460048501546005860154600690960154949593949293919290919087565b604080519788526020880196909652948601939093526060850191909152608084015260a083015260c082015260e0016101e9565b6102af6102aa366004610c2e565b6104cc565b005b600454610205906001600160a01b031681565b6102e66102d2366004610c2e565b5f9081526020819052604090206001015490565b6040519081526020016101e9565b6102af610302366004610c45565b6104dc565b6102e67ffc8737ab85eb45125971625a9ebdb75cc78e01d5c1fa80c4c6e5203f47bc4fab81565b6102af61033c366004610c45565b610506565b6102af61034f366004610c6f565b61053e565b6102e6600a5481565b600854610205906001600160a01b031681565b6102e6600c5481565b600554610205906001600160a01b031681565b600d54610205906001600160a01b031681565b6102af6103ad366004610d01565b6105d7565b600154610205906001600160a01b031681565b6101dd6103d3366004610c45565b6105ef565b600354610205906001600160a01b031681565b6102e65f81565b600654610205906001600160a01b031681565b6102af610413366004610c2e565b610617565b6102af610426366004610c45565b610627565b6102af610439366004610d6f565b5050505050565b6102e67f3b5d4cc60d3ec3516ee8ae083bd60934f6eb2a6c54b1229985c41bfb092b260381565b600754610205906001600160a01b031681565b6102e6600b5481565b600954610205906001600160a01b031681565b5f6001600160e01b03198216637965db0b60e01b14806104c657506301ffc9a760e01b6001600160e01b03198316145b92915050565b5f6104d68161064b565b50600b55565b5f828152602081905260409020600101546104f68161064b565b6105008383610658565b50505050565b6001600160a01b038116331461052f5760405163334bd91960e11b815260040160405180910390fd5b61053982826106e7565b505050565b5f6105488161064b565b50600180546001600160a01b03199081166001600160a01b039a8b1617909155600280548216988a1698909817909755600380548816968916969096179095556004805487169488169490941790935560058054861692871692909217909155600680548516918616919091179055600880548416918516919091179055600980549092169216919091179055565b6105e2838383610750565b620186a0610500836109c2565b5f918252602082815260408084206001600160a01b0393909316845291905290205460ff1690565b5f6106218161064b565b50600a55565b5f828152602081905260409020600101546106418161064b565b61050083836106e7565b6106558133610b8f565b50565b5f61066383836105ef565b6106e0575f838152602081815260408083206001600160a01b03861684529091529020805460ff191660011790556106983390565b6001600160a01b0316826001600160a01b0316847f2f8788117e7eff1d82e926ec794901d17c78024a50270940304540a733656f0d60405160405180910390a45060016104c6565b505f6104c6565b5f6106f283836105ef565b156106e0575f838152602081815260408083206001600160a01b0386168085529252808320805460ff1916905551339286917ff6391f5c32d9c69d2a47ea670b442974b53935d1edc7fd64eb21e047a839171b9190a45060016104c6565b5f83116107a45760405162461bcd60e51b815260206004820152601f60248201527f416d6f756e742073686f756c642062652067726561746572207468616e20300060448201526064015b60405180910390fd5b6006546040516323b872dd60e01b8152336004820152306024820152604481018590526001600160a01b03909116906323b872dd906064016020604051808303815f875af11580156107f8573d5f803e3d5ffd5b505050506040513d601f19601f8201168201806040525081019061081c9190610e18565b61085a5760405162461bcd60e51b815260206004820152600f60248201526e151c985b9cd9995c8819985a5b1959608a1b604482015260640161079b565b6006546004805460405163095ea7b360e01b81526001600160a01b0391821692810192909252602482018690529091169063095ea7b3906044016020604051808303815f875af11580156108b0573d5f803e3d5ffd5b505050506040513d601f19601f820116820180604052508101906108d49190610e18565b6109125760405162461bcd60e51b815260206004820152600f60248201526e105c1c1c9bdd985b0819985a5b1959608a1b604482015260640161079b565b600480546040516323cfed0360e01b815291820185905260248201849052604482018390526001600160a01b0316906323cfed03906064015f604051808303815f87803b158015610961575f80fd5b505af1158015610973573d5f803e3d5ffd5b5050505082600c546109859190610e4b565b600c55335f908152600e6020526040902080546109a3908590610e4b565b815560018101546109b5908490610e4b565b6001820155600601555050565b60035460055460405163095ea7b360e01b81526001600160a01b0391821660048201526024810184905291169063095ea7b3906044016020604051808303815f875af1158015610a14573d5f803e3d5ffd5b505050506040513d601f19601f82011682018060405250810190610a389190610e18565b610a765760405162461bcd60e51b815260206004820152600f60248201526e105c1c1c9bdd985b0819985a5b1959608a1b604482015260640161079b565b600554604051635e0d443f60e01b8152600160048201525f6024820181905260448201849052916064916001600160a01b0390911690635e0d443f908301602060405180830381865afa158015610acf573d5f803e3d5ffd5b505050506040513d601f19601f82011682018060405250810190610af39190610e5e565b610afe906063610e75565b610b089190610e8c565b60055460405163ddc1f59d60e01b8152600160048201525f602482015260448101859052606481018390523060848201529192506001600160a01b03169063ddc1f59d9060a4016020604051808303815f875af1158015610b6b573d5f803e3d5ffd5b505050506040513d601f19601f820116820180604052508101906105399190610e5e565b610b9982826105ef565b610bc85760405163e2517d3f60e01b81526001600160a01b03821660048201526024810183905260440161079b565b5050565b5f60208284031215610bdc575f80fd5b81356001600160e01b031981168114610bf3575f80fd5b9392505050565b80356001600160a01b0381168114610c10575f80fd5b919050565b5f60208284031215610c25575f80fd5b610bf382610bfa565b5f60208284031215610c3e575f80fd5b5035919050565b5f8060408385031215610c56575f80fd5b82359150610c6660208401610bfa565b90509250929050565b5f805f805f805f80610100898b031215610c87575f80fd5b610c9089610bfa565b9750610c9e60208a01610bfa565b9650610cac60408a01610bfa565b9550610cba60608a01610bfa565b9450610cc860808a01610bfa565b9350610cd660a08a01610bfa565b9250610ce460c08a01610bfa565b9150610cf260e08a01610bfa565b90509295985092959890939650565b5f805f60608486031215610d13575f80fd5b505081359360208301359350604090920135919050565b5f8083601f840112610d3a575f80fd5b50813567ffffffffffffffff811115610d51575f80fd5b602083019150836020828501011115610d68575f80fd5b9250929050565b5f805f805f60608688031215610d83575f80fd5b610d8c86610bfa565b9450602086013567ffffffffffffffff80821115610da8575f80fd5b818801915088601f830112610dbb575f80fd5b813581811115610dc9575f80fd5b8960208260051b8501011115610ddd575f80fd5b602083019650809550506040880135915080821115610dfa575f80fd5b50610e0788828901610d2a565b969995985093965092949392505050565b5f60208284031215610e28575f80fd5b81518015158114610bf3575f80fd5b634e487b7160e01b5f52601160045260245ffd5b808201808211156104c6576104c6610e37565b5f60208284031215610e6e575f80fd5b5051919050565b80820281158282048414176104c6576104c6610e37565b5f82610ea657634e487b7160e01b5f52601260045260245ffd5b50049056fea26469706673582212200f8f3fe724e3b0eae522371b1be0bec5cc69738773e6b24d40f715477b33203564736f6c63430008150033",
    "linkReferences": {}
  },
  "methodIdentifiers": {
    "DAO_ROLE()": "e9c26518",
    "DEFAULT_ADMIN_ROLE()": "a217fddf",
    "KEEPER_ROLE()": "364bc15a",
    "_claimRewards()": "a2e99a9b",
    "_withdrawInvestment(address,uint256[],bytes)": "e7eb1f1a",
    "auraBooster()": "81bf829d",
    "balancerVault()": "158274a5",
    "crvUSD()": "9bec8288",
    "crvUSDController()": "236f6f42",
    "crvUSDUSDCPool()": "569281ce",
    "crvusd()": "eaed5d6f",
    "d2d()": "fd81e7d4",
    "getRoleAdmin(bytes32)": "248a9ca3",
    "grantRole(bytes32,address)": "2f2ff15d",
    "hasRole(bytes32,address)": "91d14854",
    "initializeContracts(address,address,address,address,address,address,address,address)": "3ca89f41",
    "invest(uint256,uint256,uint256)": "79aba36d",
    "pid()": "f1068454",
    "poolId()": "3e0dc34e",
    "renounceRole(bytes32,address)": "36568abe",
    "revokeRole(bytes32,address)": "d547741f",
    "setPid(uint256)": "1b0d8aab",
    "setPoolId(bytes32)": "d51a786b",
    "supportsInterface(bytes4)": "01ffc9a7",
    "totalwstETHDeposited()": "4c449512",
    "treasury()": "61d027b3",
    "usdc()": "3e413bee",
    "userInfo(address)": "1959a002",
    "wsteth()": "d1d8bce7"
  },
  "id": 0
}